{
    "_format": "hh-sol-artifact-1",
    "contractName": "NFT",
    "sourceName": "contracts/NFT.sol",
    "abi": [
        {
            "inputs": [],
            "stateMutability": "nonpayable",
            "type": "constructor"
        },
        {
            "anonymous": false,
            "inputs": [
                {
                    "indexed": true,
                    "internalType": "address",
                    "name": "owner",
                    "type": "address"
                },
                {
                    "indexed": true,
                    "internalType": "address",
                    "name": "approved",
                    "type": "address"
                },
                {
                    "indexed": true,
                    "internalType": "uint256",
                    "name": "tokenId",
                    "type": "uint256"
                }
            ],
            "name": "Approval",
            "type": "event"
        },
        {
            "anonymous": false,
            "inputs": [
                {
                    "indexed": true,
                    "internalType": "address",
                    "name": "owner",
                    "type": "address"
                },
                {
                    "indexed": true,
                    "internalType": "address",
                    "name": "operator",
                    "type": "address"
                },
                {
                    "indexed": false,
                    "internalType": "bool",
                    "name": "approved",
                    "type": "bool"
                }
            ],
            "name": "ApprovalForAll",
            "type": "event"
        },
        {
            "anonymous": false,
            "inputs": [
                {
                    "indexed": false,
                    "internalType": "address",
                    "name": "sender",
                    "type": "address"
                },
                {
                    "indexed": false,
                    "internalType": "uint256",
                    "name": "tokenId",
                    "type": "uint256"
                }
            ],
            "name": "NewNFTMinted",
            "type": "event"
        },
        {
            "anonymous": false,
            "inputs": [
                {
                    "indexed": true,
                    "internalType": "address",
                    "name": "from",
                    "type": "address"
                },
                {
                    "indexed": true,
                    "internalType": "address",
                    "name": "to",
                    "type": "address"
                },
                {
                    "indexed": true,
                    "internalType": "uint256",
                    "name": "tokenId",
                    "type": "uint256"
                }
            ],
            "name": "Transfer",
            "type": "event"
        },
        {
            "inputs": [
                {
                    "internalType": "address",
                    "name": "to",
                    "type": "address"
                },
                {
                    "internalType": "uint256",
                    "name": "tokenId",
                    "type": "uint256"
                }
            ],
            "name": "approve",
            "outputs": [],
            "stateMutability": "nonpayable",
            "type": "function"
        },
        {
            "inputs": [
                {
                    "internalType": "address",
                    "name": "owner",
                    "type": "address"
                }
            ],
            "name": "balanceOf",
            "outputs": [
                {
                    "internalType": "uint256",
                    "name": "",
                    "type": "uint256"
                }
            ],
            "stateMutability": "view",
            "type": "function"
        },
        {
            "inputs": [
                {
                    "internalType": "uint256",
                    "name": "tokenId",
                    "type": "uint256"
                }
            ],
            "name": "getApproved",
            "outputs": [
                {
                    "internalType": "address",
                    "name": "",
                    "type": "address"
                }
            ],
            "stateMutability": "view",
            "type": "function"
        },
        {
            "inputs": [],
            "name": "getTotalNftMinted",
            "outputs": [
                {
                    "internalType": "uint128",
                    "name": "",
                    "type": "uint128"
                }
            ],
            "stateMutability": "view",
            "type": "function"
        },
        {
            "inputs": [
                {
                    "internalType": "address",
                    "name": "owner",
                    "type": "address"
                },
                {
                    "internalType": "address",
                    "name": "operator",
                    "type": "address"
                }
            ],
            "name": "isApprovedForAll",
            "outputs": [
                {
                    "internalType": "bool",
                    "name": "",
                    "type": "bool"
                }
            ],
            "stateMutability": "view",
            "type": "function"
        },
        {
            "inputs": [],
            "name": "makeNFT",
            "outputs": [],
            "stateMutability": "nonpayable",
            "type": "function"
        },
        {
            "inputs": [],
            "name": "name",
            "outputs": [
                {
                    "internalType": "string",
                    "name": "",
                    "type": "string"
                }
            ],
            "stateMutability": "view",
            "type": "function"
        },
        {
            "inputs": [
                {
                    "internalType": "uint256",
                    "name": "tokenId",
                    "type": "uint256"
                }
            ],
            "name": "ownerOf",
            "outputs": [
                {
                    "internalType": "address",
                    "name": "",
                    "type": "address"
                }
            ],
            "stateMutability": "view",
            "type": "function"
        },
        {
            "inputs": [
                {
                    "internalType": "uint256",
                    "name": "tokenId",
                    "type": "uint256"
                }
            ],
            "name": "pickRandomColor",
            "outputs": [
                {
                    "internalType": "string",
                    "name": "",
                    "type": "string"
                }
            ],
            "stateMutability": "view",
            "type": "function"
        },
        {
            "inputs": [
                {
                    "internalType": "uint256",
                    "name": "tokenId",
                    "type": "uint256"
                }
            ],
            "name": "pickRandomFirstWord",
            "outputs": [
                {
                    "internalType": "string",
                    "name": "",
                    "type": "string"
                }
            ],
            "stateMutability": "view",
            "type": "function"
        },
        {
            "inputs": [
                {
                    "internalType": "uint256",
                    "name": "tokenId",
                    "type": "uint256"
                }
            ],
            "name": "pickRandomSecondWord",
            "outputs": [
                {
                    "internalType": "string",
                    "name": "",
                    "type": "string"
                }
            ],
            "stateMutability": "view",
            "type": "function"
        },
        {
            "inputs": [
                {
                    "internalType": "uint256",
                    "name": "tokenId",
                    "type": "uint256"
                }
            ],
            "name": "pickRandomThirdWord",
            "outputs": [
                {
                    "internalType": "string",
                    "name": "",
                    "type": "string"
                }
            ],
            "stateMutability": "view",
            "type": "function"
        },
        {
            "inputs": [
                {
                    "internalType": "address",
                    "name": "from",
                    "type": "address"
                },
                {
                    "internalType": "address",
                    "name": "to",
                    "type": "address"
                },
                {
                    "internalType": "uint256",
                    "name": "tokenId",
                    "type": "uint256"
                }
            ],
            "name": "safeTransferFrom",
            "outputs": [],
            "stateMutability": "nonpayable",
            "type": "function"
        },
        {
            "inputs": [
                {
                    "internalType": "address",
                    "name": "from",
                    "type": "address"
                },
                {
                    "internalType": "address",
                    "name": "to",
                    "type": "address"
                },
                {
                    "internalType": "uint256",
                    "name": "tokenId",
                    "type": "uint256"
                },
                {
                    "internalType": "bytes",
                    "name": "_data",
                    "type": "bytes"
                }
            ],
            "name": "safeTransferFrom",
            "outputs": [],
            "stateMutability": "nonpayable",
            "type": "function"
        },
        {
            "inputs": [
                {
                    "internalType": "address",
                    "name": "operator",
                    "type": "address"
                },
                {
                    "internalType": "bool",
                    "name": "approved",
                    "type": "bool"
                }
            ],
            "name": "setApprovalForAll",
            "outputs": [],
            "stateMutability": "nonpayable",
            "type": "function"
        },
        {
            "inputs": [
                {
                    "internalType": "bytes4",
                    "name": "interfaceId",
                    "type": "bytes4"
                }
            ],
            "name": "supportsInterface",
            "outputs": [
                {
                    "internalType": "bool",
                    "name": "",
                    "type": "bool"
                }
            ],
            "stateMutability": "view",
            "type": "function"
        },
        {
            "inputs": [],
            "name": "symbol",
            "outputs": [
                {
                    "internalType": "string",
                    "name": "",
                    "type": "string"
                }
            ],
            "stateMutability": "view",
            "type": "function"
        },
        {
            "inputs": [
                {
                    "internalType": "uint256",
                    "name": "tokenId",
                    "type": "uint256"
                }
            ],
            "name": "tokenURI",
            "outputs": [
                {
                    "internalType": "string",
                    "name": "",
                    "type": "string"
                }
            ],
            "stateMutability": "view",
            "type": "function"
        },
        {
            "inputs": [
                {
                    "internalType": "address",
                    "name": "from",
                    "type": "address"
                },
                {
                    "internalType": "address",
                    "name": "to",
                    "type": "address"
                },
                {
                    "internalType": "uint256",
                    "name": "tokenId",
                    "type": "uint256"
                }
            ],
            "name": "transferFrom",
            "outputs": [],
            "stateMutability": "nonpayable",
            "type": "function"
        }
    ],
    "bytecode": "0x608060405260405180610100016040528060d3815260200162004c9b60d39139600890805190602001906200003692919062000af2565b5060405180608001604052806057815260200162004d6e60579139600990805190602001906200006892919062000af2565b506040518060a001604052806040518060400160405280600381526020017f726564000000000000000000000000000000000000000000000000000000000081525081526020016040518060400160405280600481526020017f626c75650000000000000000000000000000000000000000000000000000000081525081526020016040518060400160405280600581526020017f626c61636b00000000000000000000000000000000000000000000000000000081525081526020016040518060400160405280600681526020017f79656c6c6f77000000000000000000000000000000000000000000000000000081525081526020016040518060400160405280600581526020017f677265656e000000000000000000000000000000000000000000000000000000815250815250600a906005620001ab92919062000b83565b506040518060c001604052806040518060400160405280600981526020017f46616e746173746963000000000000000000000000000000000000000000000081525081526020016040518060400160405280600481526020017f457069630000000000000000000000000000000000000000000000000000000081525081526020016040518060400160405280600481526020017f57696c640000000000000000000000000000000000000000000000000000000081525081526020016040518060400160405280600681526020017f53706f6f6b79000000000000000000000000000000000000000000000000000081525081526020016040518060400160405280600981526020017f42656175746966756c000000000000000000000000000000000000000000000081525081526020016040518060400160405280600781526020017f417765736f6d6500000000000000000000000000000000000000000000000000815250815250600b9060066200032992919062000bea565b50604051806101e001604052806040518060400160405280600681526020017f4e6172676973000000000000000000000000000000000000000000000000000081525081526020016040518060400160405280600981526020017f4d6164687562616c61000000000000000000000000000000000000000000000081525081526020016040518060400160405280600781526020017f537269646576690000000000000000000000000000000000000000000000000081525081526020016040518060400160405280600781526020017f4d6164687572690000000000000000000000000000000000000000000000000081525081526020016040518060400160405280600581526020017f4e7574616e00000000000000000000000000000000000000000000000000000081525081526020016040518060400160405280600581526020017f4d65656e6100000000000000000000000000000000000000000000000000000081525081526020016040518060400160405280600781526020017f576168656564610000000000000000000000000000000000000000000000000081525081526020016040518060400160405280600881526020017f536861726d696c6100000000000000000000000000000000000000000000000081525081526020016040518060400160405280600581526020017f52656b686100000000000000000000000000000000000000000000000000000081525081526020016040518060400160405280600881526020017f50726979616e6b6100000000000000000000000000000000000000000000000081525081526020016040518060400160405280600781526020017f44656570696b610000000000000000000000000000000000000000000000000081525081526020016040518060400160405280600681526020017f507265697479000000000000000000000000000000000000000000000000000081525081526020016040518060400160405280600781526020017f5061727665656e0000000000000000000000000000000000000000000000000081525081526020016040518060400160405280600481526020017f416c69610000000000000000000000000000000000000000000000000000000081525081526020016040518060400160405280600781526020017f4b617472696e6100000000000000000000000000000000000000000000000000815250815250600c90600f620006bb92919062000c51565b506040518061014001604052806040518060400160405280600781526020017f43757063616b650000000000000000000000000000000000000000000000000081525081526020016040518060400160405280600581526020017f50697a7a6100000000000000000000000000000000000000000000000000000081525081526020016040518060400160405280600981526020017f4d696c6b7368616b65000000000000000000000000000000000000000000000081525081526020016040518060400160405280600781526020017f56616e696c6c610000000000000000000000000000000000000000000000000081525081526020016040518060400160405280600a81526020017f537472617762657272790000000000000000000000000000000000000000000081525081526020016040518060400160405280600981526020017f43686f636f6c617465000000000000000000000000000000000000000000000081525081526020016040518060400160405280600a81526020017f57617465726d656c6f6e0000000000000000000000000000000000000000000081525081526020016040518060400160405280600681526020017f42616e616e61000000000000000000000000000000000000000000000000000081525081526020016040518060400160405280600581526020017f4170706c6500000000000000000000000000000000000000000000000000000081525081526020016040518060400160405280600681526020017f4275726765720000000000000000000000000000000000000000000000000000815250815250600d90600a6200092692919062000cb8565b503480156200093457600080fd5b506040518060400160405280600d81526020017f506177616e4b756d6172417274000000000000000000000000000000000000008152506040518060400160405280600581526020017f504b4152540000000000000000000000000000000000000000000000000000008152508160009080519060200190620009b992919062000af2565b508060019080519060200190620009d292919062000af2565b50505062000a206040518060400160405280601e81526020017f54686973206973206d79204e465420636f6e74726163742e2057686f6121000081525062000a2660201b620013301760201c565b62000ed9565b62000ac68160405160240162000a3d919062000ded565b6040516020818303038152906040527f41304fac000000000000000000000000000000000000000000000000000000007bffffffffffffffffffffffffffffffffffffffffffffffffffffffff19166020820180517bffffffffffffffffffffffffffffffffffffffffffffffffffffffff838183161783525050505062000ac960201b60201c565b50565b60008151905060006a636f6e736f6c652e6c6f679050602083016000808483855afa5050505050565b82805462000b009062000e63565b90600052602060002090601f01602090048101928262000b24576000855562000b70565b82601f1062000b3f57805160ff191683800117855562000b70565b8280016001018555821562000b70579182015b8281111562000b6f57825182559160200191906001019062000b52565b5b50905062000b7f919062000d1f565b5090565b82805482825590600052602060002090810192821562000bd7579160200282015b8281111562000bd657825182908051906020019062000bc592919062000af2565b509160200191906001019062000ba4565b5b50905062000be6919062000d3e565b5090565b82805482825590600052602060002090810192821562000c3e579160200282015b8281111562000c3d57825182908051906020019062000c2c92919062000af2565b509160200191906001019062000c0b565b5b50905062000c4d919062000d3e565b5090565b82805482825590600052602060002090810192821562000ca5579160200282015b8281111562000ca457825182908051906020019062000c9392919062000af2565b509160200191906001019062000c72565b5b50905062000cb4919062000d3e565b5090565b82805482825590600052602060002090810192821562000d0c579160200282015b8281111562000d0b57825182908051906020019062000cfa92919062000af2565b509160200191906001019062000cd9565b5b50905062000d1b919062000d3e565b5090565b5b8082111562000d3a57600081600090555060010162000d20565b5090565b5b8082111562000d62576000818162000d58919062000d66565b5060010162000d3f565b5090565b50805462000d749062000e63565b6000825580601f1062000d88575062000da9565b601f01602090049060005260206000209081019062000da8919062000d1f565b5b50565b600062000db98262000e11565b62000dc5818562000e1c565b935062000dd781856020860162000e2d565b62000de28162000ec8565b840191505092915050565b6000602082019050818103600083015262000e09818462000dac565b905092915050565b600081519050919050565b600082825260208201905092915050565b60005b8381101562000e4d57808201518184015260208101905062000e30565b8381111562000e5d576000848401525b50505050565b6000600282049050600182168062000e7c57607f821691505b6020821081141562000e935762000e9262000e99565b5b50919050565b7f4e487b7100000000000000000000000000000000000000000000000000000000600052602260045260246000fd5b6000601f19601f8301169050919050565b613db28062000ee96000396000f3fe608060405234801561001057600080fd5b50600436106101215760003560e01c80636352211e116100ad578063b187301f11610071578063b187301f1461031a578063b88d4fde1461034a578063c575757a14610366578063c87b56dd14610396578063e985e9c5146103c657610121565b80636352211e1461027657806370a08231146102a657806395d89b41146102d6578063a22cb465146102f4578063b036b4bd1461031057610121565b80630ff9a361116100f45780630ff9a361146101c057806323b872dd146101de5780632de38d68146101fa57806342842e0e1461022a578063514dc8c61461024657610121565b806301ffc9a71461012657806306fdde0314610156578063081812fc14610174578063095ea7b3146101a4575b600080fd5b610140600480360381019061013b919061275c565b6103f6565b60405161014d9190612f19565b60405180910390f35b61015e6104d8565b60405161016b9190612f34565b60405180910390f35b61018e600480360381019061018991906127ae565b61056a565b60405161019b9190612e89565b60405180910390f35b6101be60048036038101906101b99190612720565b6105ef565b005b6101c8610707565b6040516101d59190613194565b60405180910390f35b6101f860048036038101906101f3919061261a565b610718565b005b610214600480360381019061020f91906127ae565b610778565b6040516102219190612f34565b60405180910390f35b610244600480360381019061023f919061261a565b610896565b005b610260600480360381019061025b91906127ae565b6108b6565b60405161026d9190612f34565b60405180910390f35b610290600480360381019061028b91906127ae565b6109d4565b60405161029d9190612e89565b60405180910390f35b6102c060048036038101906102bb91906125b5565b610a86565b6040516102cd91906131af565b60405180910390f35b6102de610b3e565b6040516102eb9190612f34565b60405180910390f35b61030e600480360381019061030991906126e4565b610bd0565b005b610318610be6565b005b610334600480360381019061032f91906127ae565b610eac565b6040516103419190612f34565b60405180910390f35b610364600480360381019061035f9190612669565b610fca565b005b610380600480360381019061037b91906127ae565b61102c565b60405161038d9190612f34565b60405180910390f35b6103b060048036038101906103ab91906127ae565b61114a565b6040516103bd9190612f34565b60405180910390f35b6103e060048036038101906103db91906125de565b61129c565b6040516103ed9190612f19565b60405180910390f35b60007f80ac58cd000000000000000000000000000000000000000000000000000000007bffffffffffffffffffffffffffffffffffffffffffffffffffffffff1916827bffffffffffffffffffffffffffffffffffffffffffffffffffffffff191614806104c157507f5b5e139f000000000000000000000000000000000000000000000000000000007bffffffffffffffffffffffffffffffffffffffffffffffffffffffff1916827bffffffffffffffffffffffffffffffffffffffffffffffffffffffff1916145b806104d157506104d0826113c9565b5b9050919050565b6060600080546104e79061345f565b80601f01602080910402602001604051908101604052809291908181526020018280546105139061345f565b80156105605780601f1061053557610100808354040283529160200191610560565b820191906000526020600020905b81548152906001019060200180831161054357829003601f168201915b5050505050905090565b600061057582611433565b6105b4576040517f08c379a00000000000000000000000000000000000000000000000000000000081526004016105ab90613114565b60405180910390fd5b6004600083815260200190815260200160002060009054906101000a900473ffffffffffffffffffffffffffffffffffffffff169050919050565b60006105fa826109d4565b90508073ffffffffffffffffffffffffffffffffffffffff168373ffffffffffffffffffffffffffffffffffffffff16141561066b576040517f08c379a000000000000000000000000000000000000000000000000000000000815260040161066290613154565b60405180910390fd5b8073ffffffffffffffffffffffffffffffffffffffff1661068a61149f565b73ffffffffffffffffffffffffffffffffffffffff1614806106b957506106b8816106b361149f565b61129c565b5b6106f8576040517f08c379a00000000000000000000000000000000000000000000000000000000081526004016106ef90613054565b60405180910390fd5b61070283836114a7565b505050565b60006107136007611560565b905090565b61072961072361149f565b8261156e565b610768576040517f08c379a000000000000000000000000000000000000000000000000000000000815260040161075f90613174565b60405180910390fd5b61077383838361164c565b505050565b606060006107ac610788846118b3565b6040516020016107989190612e67565b604051602081830303815290604052611a60565b9050600b80549050816107bf919061350b565b9050600b81815481106107fb577f4e487b7100000000000000000000000000000000000000000000000000000000600052603260045260246000fd5b9060005260206000200180546108109061345f565b80601f016020809104026020016040519081016040528092919081815260200182805461083c9061345f565b80156108895780601f1061085e57610100808354040283529160200191610889565b820191906000526020600020905b81548152906001019060200180831161086c57829003601f168201915b5050505050915050919050565b6108b183838360405180602001604052806000815250610fca565b505050565b606060006108ea6108c6846118b3565b6040516020016108d69190612e45565b604051602081830303815290604052611a60565b9050600a80549050816108fd919061350b565b9050600a8181548110610939577f4e487b7100000000000000000000000000000000000000000000000000000000600052603260045260246000fd5b90600052602060002001805461094e9061345f565b80601f016020809104026020016040519081016040528092919081815260200182805461097a9061345f565b80156109c75780601f1061099c576101008083540402835291602001916109c7565b820191906000526020600020905b8154815290600101906020018083116109aa57829003601f168201915b5050505050915050919050565b6000806002600084815260200190815260200160002060009054906101000a900473ffffffffffffffffffffffffffffffffffffffff169050600073ffffffffffffffffffffffffffffffffffffffff168173ffffffffffffffffffffffffffffffffffffffff161415610a7d576040517f08c379a0000000000000000000000000000000000000000000000000000000008152600401610a7490613094565b60405180910390fd5b80915050919050565b60008073ffffffffffffffffffffffffffffffffffffffff168273ffffffffffffffffffffffffffffffffffffffff161415610af7576040517f08c379a0000000000000000000000000000000000000000000000000000000008152600401610aee90613074565b60405180910390fd5b600360008373ffffffffffffffffffffffffffffffffffffffff1673ffffffffffffffffffffffffffffffffffffffff168152602001908152602001600020549050919050565b606060018054610b4d9061345f565b80601f0160208091040260200160405190810160405280929190818152602001828054610b799061345f565b8015610bc65780601f10610b9b57610100808354040283529160200191610bc6565b820191906000526020600020905b815481529060010190602001808311610ba957829003601f168201915b5050505050905090565b610be2610bdb61149f565b8383611a93565b5050565b6000610bf26007611560565b905060328110610c0157600080fd5b6000610c0c82610778565b90506000610c1983610eac565b90506000610c268461102c565b90506000838383604051602001610c3f93929190612cfe565b6040516020818303038152906040529050610c5984611330565b610c6283611330565b610c6b82611330565b6000610c76866108b6565b90506000600882600985604051602001610c939493929190612d2f565b60405160208183030381529060405290506000610cd884610cb384611c00565b604051602001610cc4929190612dde565b604051602081830303815290604052611c00565b9050600081604051602001610ced9190612e23565b6040516020818303038152906040529050610d3c6040518060400160405280601281526020017f535647200a2d2d2d2d2d2d2d2d2d2d2d2d2d0000000000000000000000000000815250611330565b610d4583611330565b610d836040518060400160405280600f81526020017f0a2d2d2d2d2d2d2d2d2d2d2d2d2d2d0000000000000000000000000000000000815250611330565b610d8d338a611dbe565b610d978982611ddc565b610dd56040518060400160405280601581526020017f0a2d2d2d2d2d2d2d2d2d2d2d2d2d2d2d2d2d2d2d2d0000000000000000000000815250611330565b610dfd81604051602001610de99190612d78565b604051602081830303815290604052611330565b610e3b6040518060400160405280601581526020017f2d2d2d2d2d2d2d2d2d2d2d2d2d2d2d2d2d2d2d2d0a0000000000000000000000815250611330565b610e5e604051806060016040528060278152602001613d16602791398a33611e50565b610e686007611eef565b7f1c05098ed1ff38e6238d2b1b04b2c7977d4c94ce651bda6473f9dba8dbf01da0338a604051610e99929190612ef0565b60405180910390a1505050505050505050565b60606000610ee0610ebc846118b3565b604051602001610ecc9190612dbc565b604051602081830303815290604052611a60565b9050600c8054905081610ef3919061350b565b9050600c8181548110610f2f577f4e487b7100000000000000000000000000000000000000000000000000000000600052603260045260246000fd5b906000526020600020018054610f449061345f565b80601f0160208091040260200160405190810160405280929190818152602001828054610f709061345f565b8015610fbd5780601f10610f9257610100808354040283529160200191610fbd565b820191906000526020600020905b815481529060010190602001808311610fa057829003601f168201915b5050505050915050919050565b610fdb610fd561149f565b8361156e565b61101a576040517f08c379a000000000000000000000000000000000000000000000000000000000815260040161101190613174565b60405180910390fd5b61102684848484611f05565b50505050565b6060600061106061103c846118b3565b60405160200161104c9190612d9a565b604051602081830303815290604052611a60565b9050600d8054905081611073919061350b565b9050600d81815481106110af577f4e487b7100000000000000000000000000000000000000000000000000000000600052603260045260246000fd5b9060005260206000200180546110c49061345f565b80601f01602080910402602001604051908101604052809291908181526020018280546110f09061345f565b801561113d5780601f106111125761010080835404028352916020019161113d565b820191906000526020600020905b81548152906001019060200180831161112057829003601f168201915b5050505050915050919050565b606061115582611433565b611194576040517f08c379a000000000000000000000000000000000000000000000000000000000815260040161118b906130f4565b60405180910390fd5b60006006600084815260200190815260200160002080546111b49061345f565b80601f01602080910402602001604051908101604052809291908181526020018280546111e09061345f565b801561122d5780601f106112025761010080835404028352916020019161122d565b820191906000526020600020905b81548152906001019060200180831161121057829003601f168201915b50505050509050600061123e611f61565b9050600081511415611254578192505050611297565b600082511115611289578082604051602001611271929190612cda565b60405160208183030381529060405292505050611297565b61129284611f78565b925050505b919050565b6000600560008473ffffffffffffffffffffffffffffffffffffffff1673ffffffffffffffffffffffffffffffffffffffff16815260200190815260200160002060008373ffffffffffffffffffffffffffffffffffffffff1673ffffffffffffffffffffffffffffffffffffffff16815260200190815260200160002060009054906101000a900460ff16905092915050565b6113c6816040516024016113449190612f34565b6040516020818303038152906040527f41304fac000000000000000000000000000000000000000000000000000000007bffffffffffffffffffffffffffffffffffffffffffffffffffffffff19166020820180517bffffffffffffffffffffffffffffffffffffffffffffffffffffffff838183161783525050505061201f565b50565b60007f01ffc9a7000000000000000000000000000000000000000000000000000000007bffffffffffffffffffffffffffffffffffffffffffffffffffffffff1916827bffffffffffffffffffffffffffffffffffffffffffffffffffffffff1916149050919050565b60008073ffffffffffffffffffffffffffffffffffffffff166002600084815260200190815260200160002060009054906101000a900473ffffffffffffffffffffffffffffffffffffffff1673ffffffffffffffffffffffffffffffffffffffff1614159050919050565b600033905090565b816004600083815260200190815260200160002060006101000a81548173ffffffffffffffffffffffffffffffffffffffff021916908373ffffffffffffffffffffffffffffffffffffffff160217905550808273ffffffffffffffffffffffffffffffffffffffff1661151a836109d4565b73ffffffffffffffffffffffffffffffffffffffff167f8c5be1e5ebec7d5bd14f71427d1e84f3dd0314c0f7b2291e5b200ac8c7c3b92560405160405180910390a45050565b600081600001549050919050565b600061157982611433565b6115b8576040517f08c379a00000000000000000000000000000000000000000000000000000000081526004016115af90613034565b60405180910390fd5b60006115c3836109d4565b90508073ffffffffffffffffffffffffffffffffffffffff168473ffffffffffffffffffffffffffffffffffffffff16148061163257508373ffffffffffffffffffffffffffffffffffffffff1661161a8461056a565b73ffffffffffffffffffffffffffffffffffffffff16145b806116435750611642818561129c565b5b91505092915050565b8273ffffffffffffffffffffffffffffffffffffffff1661166c826109d4565b73ffffffffffffffffffffffffffffffffffffffff16146116c2576040517f08c379a00000000000000000000000000000000000000000000000000000000081526004016116b990612fb4565b60405180910390fd5b600073ffffffffffffffffffffffffffffffffffffffff168273ffffffffffffffffffffffffffffffffffffffff161415611732576040517f08c379a000000000000000000000000000000000000000000000000000000000815260040161172990612ff4565b60405180910390fd5b61173d838383612048565b6117486000826114a7565b6001600360008573ffffffffffffffffffffffffffffffffffffffff1673ffffffffffffffffffffffffffffffffffffffff16815260200190815260200160002060008282546117989190613359565b925050819055506001600360008473ffffffffffffffffffffffffffffffffffffffff1673ffffffffffffffffffffffffffffffffffffffff16815260200190815260200160002060008282546117ef9190613278565b92505081905550816002600083815260200190815260200160002060006101000a81548173ffffffffffffffffffffffffffffffffffffffff021916908373ffffffffffffffffffffffffffffffffffffffff160217905550808273ffffffffffffffffffffffffffffffffffffffff168473ffffffffffffffffffffffffffffffffffffffff167fddf252ad1be2c89b69c2b068fc378daa952ba7f163c4a11628f55a4df523b3ef60405160405180910390a46118ae83838361204d565b505050565b606060008214156118fb576040518060400160405280600181526020017f30000000000000000000000000000000000000000000000000000000000000008152509050611a5b565b600082905060005b6000821461192d578080611916906134c2565b915050600a8261192691906132ce565b9150611903565b60008167ffffffffffffffff81111561196f577f4e487b7100000000000000000000000000000000000000000000000000000000600052604160045260246000fd5b6040519080825280601f01601f1916602001820160405280156119a15781602001600182028036833780820191505090505b5090505b60008514611a54576001826119ba9190613359565b9150600a856119c9919061350b565b60306119d59190613278565b60f81b818381518110611a11577f4e487b7100000000000000000000000000000000000000000000000000000000600052603260045260246000fd5b60200101907effffffffffffffffffffffffffffffffffffffffffffffffffffffffffffff1916908160001a905350600a85611a4d91906132ce565b94506119a5565b8093505050505b919050565b600081604051602001611a739190612cc3565b6040516020818303038152906040528051906020012060001c9050919050565b8173ffffffffffffffffffffffffffffffffffffffff168373ffffffffffffffffffffffffffffffffffffffff161415611b02576040517f08c379a0000000000000000000000000000000000000000000000000000000008152600401611af990613014565b60405180910390fd5b80600560008573ffffffffffffffffffffffffffffffffffffffff1673ffffffffffffffffffffffffffffffffffffffff16815260200190815260200160002060008473ffffffffffffffffffffffffffffffffffffffff1673ffffffffffffffffffffffffffffffffffffffff16815260200190815260200160002060006101000a81548160ff0219169083151502179055508173ffffffffffffffffffffffffffffffffffffffff168373ffffffffffffffffffffffffffffffffffffffff167f17307eab39ab6107e8899845ad3d59bd9653f200f220920489ca2b5937696c3183604051611bf39190612f19565b60405180910390a3505050565b60606000825190506000811415611c295760405180602001604052806000815250915050611db9565b60006003600283611c3a9190613278565b611c4491906132ce565b6004611c5091906132ff565b90506000602082611c619190613278565b67ffffffffffffffff811115611ca0577f4e487b7100000000000000000000000000000000000000000000000000000000600052604160045260246000fd5b6040519080825280601f01601f191660200182016040528015611cd25781602001600182028036833780820191505090505b5090506000604051806060016040528060408152602001613d3d604091399050600181016020830160005b86811015611d765760038101905062ffffff818a015116603f8160121c168401518060081b905060ff603f83600c1c1686015116810190508060081b905060ff603f8360061c1686015116810190508060081b905060ff603f831686015116810190508060e01b90508084526004840193505050611cfd565b506003860660018114611d905760028114611da057611dab565b613d3d60f01b6002830352611dab565b603d60f81b60018303525b508484525050819450505050505b919050565b611dd8828260405180602001604052806000815250612052565b5050565b611de582611433565b611e24576040517f08c379a0000000000000000000000000000000000000000000000000000000008152600401611e1b906130b4565b60405180910390fd5b80600660008481526020019081526020016000209080519060200190611e4b929190612441565b505050565b611eea838383604051602401611e6893929190612f56565b6040516020818303038152906040527fe3849f79000000000000000000000000000000000000000000000000000000007bffffffffffffffffffffffffffffffffffffffffffffffffffffffff19166020820180517bffffffffffffffffffffffffffffffffffffffffffffffffffffffff838183161783525050505061201f565b505050565b6001816000016000828254019250508190555050565b611f1084848461164c565b611f1c848484846120ad565b611f5b576040517f08c379a0000000000000000000000000000000000000000000000000000000008152600401611f5290612f94565b60405180910390fd5b50505050565b606060405180602001604052806000815250905090565b6060611f8382611433565b611fc2576040517f08c379a0000000000000000000000000000000000000000000000000000000008152600401611fb990613134565b60405180910390fd5b6000611fcc611f61565b90506000815111611fec5760405180602001604052806000815250612017565b80611ff6846118b3565b604051602001612007929190612cda565b6040516020818303038152906040525b915050919050565b60008151905060006a636f6e736f6c652e6c6f679050602083016000808483855afa5050505050565b505050565b505050565b61205c8383612244565b61206960008484846120ad565b6120a8576040517f08c379a000000000000000000000000000000000000000000000000000000000815260040161209f90612f94565b60405180910390fd5b505050565b60006120ce8473ffffffffffffffffffffffffffffffffffffffff1661241e565b15612237578373ffffffffffffffffffffffffffffffffffffffff1663150b7a026120f761149f565b8786866040518563ffffffff1660e01b81526004016121199493929190612ea4565b602060405180830381600087803b15801561213357600080fd5b505af192505050801561216457506040513d601f19601f820116820180604052508101906121619190612785565b60015b6121e7573d8060008114612194576040519150601f19603f3d011682016040523d82523d6000602084013e612199565b606091505b506000815114156121df576040517f08c379a00000000000000000000000000000000000000000000000000000000081526004016121d690612f94565b60405180910390fd5b805181602001fd5b63150b7a0260e01b7bffffffffffffffffffffffffffffffffffffffffffffffffffffffff1916817bffffffffffffffffffffffffffffffffffffffffffffffffffffffff19161491505061223c565b600190505b949350505050565b600073ffffffffffffffffffffffffffffffffffffffff168273ffffffffffffffffffffffffffffffffffffffff1614156122b4576040517f08c379a00000000000000000000000000000000000000000000000000000000081526004016122ab906130d4565b60405180910390fd5b6122bd81611433565b156122fd576040517f08c379a00000000000000000000000000000000000000000000000000000000081526004016122f490612fd4565b60405180910390fd5b61230960008383612048565b6001600360008473ffffffffffffffffffffffffffffffffffffffff1673ffffffffffffffffffffffffffffffffffffffff16815260200190815260200160002060008282546123599190613278565b92505081905550816002600083815260200190815260200160002060006101000a81548173ffffffffffffffffffffffffffffffffffffffff021916908373ffffffffffffffffffffffffffffffffffffffff160217905550808273ffffffffffffffffffffffffffffffffffffffff16600073ffffffffffffffffffffffffffffffffffffffff167fddf252ad1be2c89b69c2b068fc378daa952ba7f163c4a11628f55a4df523b3ef60405160405180910390a461241a6000838361204d565b5050565b6000808273ffffffffffffffffffffffffffffffffffffffff163b119050919050565b82805461244d9061345f565b90600052602060002090601f01602090048101928261246f57600085556124b6565b82601f1061248857805160ff19168380011785556124b6565b828001600101855582156124b6579182015b828111156124b557825182559160200191906001019061249a565b5b5090506124c391906124c7565b5090565b5b808211156124e05760008160009055506001016124c8565b5090565b60006124f76124f2846131ef565b6131ca565b90508281526020810184848401111561250f57600080fd5b61251a84828561341d565b509392505050565b60008135905061253181613cb9565b92915050565b60008135905061254681613cd0565b92915050565b60008135905061255b81613ce7565b92915050565b60008151905061257081613ce7565b92915050565b600082601f83011261258757600080fd5b81356125978482602086016124e4565b91505092915050565b6000813590506125af81613cfe565b92915050565b6000602082840312156125c757600080fd5b60006125d584828501612522565b91505092915050565b600080604083850312156125f157600080fd5b60006125ff85828601612522565b925050602061261085828601612522565b9150509250929050565b60008060006060848603121561262f57600080fd5b600061263d86828701612522565b935050602061264e86828701612522565b925050604061265f868287016125a0565b9150509250925092565b6000806000806080858703121561267f57600080fd5b600061268d87828801612522565b945050602061269e87828801612522565b93505060406126af878288016125a0565b925050606085013567ffffffffffffffff8111156126cc57600080fd5b6126d887828801612576565b91505092959194509250565b600080604083850312156126f757600080fd5b600061270585828601612522565b925050602061271685828601612537565b9150509250929050565b6000806040838503121561273357600080fd5b600061274185828601612522565b9250506020612752858286016125a0565b9150509250929050565b60006020828403121561276e57600080fd5b600061277c8482850161254c565b91505092915050565b60006020828403121561279757600080fd5b60006127a584828501612561565b91505092915050565b6000602082840312156127c057600080fd5b60006127ce848285016125a0565b91505092915050565b6127e08161338d565b82525050565b6127ef8161339f565b82525050565b600061280082613235565b61280a818561324b565b935061281a81856020860161342c565b612823816135f8565b840191505092915050565b600061283982613240565b612843818561325c565b935061285381856020860161342c565b61285c816135f8565b840191505092915050565b600061287282613240565b61287c818561326d565b935061288c81856020860161342c565b80840191505092915050565b600081546128a58161345f565b6128af818661326d565b945060018216600081146128ca57600181146128db5761290e565b60ff1983168652818601935061290e565b6128e485613220565b60005b83811015612906578154818901526001820191506020810190506128e7565b838801955050505b50505092915050565b600061292460258361326d565b915061292f82613609565b602582019050919050565b600061294760328361325c565b915061295282613658565b604082019050919050565b600061296a60258361325c565b9150612975826136a7565b604082019050919050565b600061298d601c8361325c565b9150612998826136f6565b602082019050919050565b60006129b0600a8361326d565b91506129bb8261371f565b600a82019050919050565b60006129d360248361325c565b91506129de82613748565b604082019050919050565b60006129f660198361325c565b9150612a0182613797565b602082019050919050565b6000612a1960638361326d565b9150612a24826137c0565b606382019050919050565b6000612a3c600b8361326d565b9150612a478261385b565b600b82019050919050565b6000612a5f602c8361325c565b9150612a6a82613884565b604082019050919050565b6000612a82600d8361326d565b9150612a8d826138d3565b600d82019050919050565b6000612aa560388361325c565b9150612ab0826138fc565b604082019050919050565b6000612ac8602a8361325c565b9150612ad38261394b565b604082019050919050565b6000612aeb60298361325c565b9150612af68261399a565b604082019050919050565b6000612b0e602e8361325c565b9150612b19826139e9565b604082019050919050565b6000612b3160028361326d565b9150612b3c82613a38565b600282019050919050565b6000612b5460208361325c565b9150612b5f82613a61565b602082019050919050565b6000612b7760318361325c565b9150612b8282613a8a565b604082019050919050565b6000612b9a602c8361325c565b9150612ba582613ad9565b604082019050919050565b6000612bbd602f8361325c565b9150612bc882613b28565b604082019050919050565b6000612be0600a8361326d565b9150612beb82613b77565b600a82019050919050565b6000612c0360218361325c565b9150612c0e82613ba0565b604082019050919050565b6000612c26601d8361326d565b9150612c3182613bef565b601d82019050919050565b6000612c4960318361325c565b9150612c5482613c18565b604082019050919050565b6000612c6c60058361326d565b9150612c7782613c67565b600582019050919050565b6000612c8f600a8361326d565b9150612c9a82613c90565b600a82019050919050565b612cae816133d7565b82525050565b612cbd81613413565b82525050565b6000612ccf8284612867565b915081905092915050565b6000612ce68285612867565b9150612cf28284612867565b91508190509392505050565b6000612d0a8286612867565b9150612d168285612867565b9150612d228284612867565b9150819050949350505050565b6000612d3b8287612898565b9150612d478286612867565b9150612d538285612898565b9150612d5f8284612867565b9150612d6a82612a75565b915081905095945050505050565b6000612d8382612917565b9150612d8f8284612867565b915081905092915050565b6000612da5826129a3565b9150612db18284612867565b915081905092915050565b6000612dc782612a2f565b9150612dd38284612867565b915081905092915050565b6000612de982612bd3565b9150612df58285612867565b9150612e0082612a0c565b9150612e0c8284612867565b9150612e1782612b24565b91508190509392505050565b6000612e2e82612c19565b9150612e3a8284612867565b915081905092915050565b6000612e5082612c5f565b9150612e5c8284612867565b915081905092915050565b6000612e7282612c82565b9150612e7e8284612867565b915081905092915050565b6000602082019050612e9e60008301846127d7565b92915050565b6000608082019050612eb960008301876127d7565b612ec660208301866127d7565b612ed36040830185612cb4565b8181036060830152612ee581846127f5565b905095945050505050565b6000604082019050612f0560008301856127d7565b612f126020830184612cb4565b9392505050565b6000602082019050612f2e60008301846127e6565b92915050565b60006020820190508181036000830152612f4e818461282e565b905092915050565b60006060820190508181036000830152612f70818661282e565b9050612f7f6020830185612cb4565b612f8c60408301846127d7565b949350505050565b60006020820190508181036000830152612fad8161293a565b9050919050565b60006020820190508181036000830152612fcd8161295d565b9050919050565b60006020820190508181036000830152612fed81612980565b9050919050565b6000602082019050818103600083015261300d816129c6565b9050919050565b6000602082019050818103600083015261302d816129e9565b9050919050565b6000602082019050818103600083015261304d81612a52565b9050919050565b6000602082019050818103600083015261306d81612a98565b9050919050565b6000602082019050818103600083015261308d81612abb565b9050919050565b600060208201905081810360008301526130ad81612ade565b9050919050565b600060208201905081810360008301526130cd81612b01565b9050919050565b600060208201905081810360008301526130ed81612b47565b9050919050565b6000602082019050818103600083015261310d81612b6a565b9050919050565b6000602082019050818103600083015261312d81612b8d565b9050919050565b6000602082019050818103600083015261314d81612bb0565b9050919050565b6000602082019050818103600083015261316d81612bf6565b9050919050565b6000602082019050818103600083015261318d81612c3c565b9050919050565b60006020820190506131a96000830184612ca5565b92915050565b60006020820190506131c46000830184612cb4565b92915050565b60006131d46131e5565b90506131e08282613491565b919050565b6000604051905090565b600067ffffffffffffffff82111561320a576132096135c9565b5b613213826135f8565b9050602081019050919050565b60008190508160005260206000209050919050565b600081519050919050565b600081519050919050565b600082825260208201905092915050565b600082825260208201905092915050565b600081905092915050565b600061328382613413565b915061328e83613413565b9250827fffffffffffffffffffffffffffffffffffffffffffffffffffffffffffffffff038211156132c3576132c261353c565b5b828201905092915050565b60006132d982613413565b91506132e483613413565b9250826132f4576132f361356b565b5b828204905092915050565b600061330a82613413565b915061331583613413565b9250817fffffffffffffffffffffffffffffffffffffffffffffffffffffffffffffffff048311821515161561334e5761334d61353c565b5b828202905092915050565b600061336482613413565b915061336f83613413565b9250828210156133825761338161353c565b5b828203905092915050565b6000613398826133f3565b9050919050565b60008115159050919050565b60007fffffffff0000000000000000000000000000000000000000000000000000000082169050919050565b60006fffffffffffffffffffffffffffffffff82169050919050565b600073ffffffffffffffffffffffffffffffffffffffff82169050919050565b6000819050919050565b82818337600083830152505050565b60005b8381101561344a57808201518184015260208101905061342f565b83811115613459576000848401525b50505050565b6000600282049050600182168061347757607f821691505b6020821081141561348b5761348a61359a565b5b50919050565b61349a826135f8565b810181811067ffffffffffffffff821117156134b9576134b86135c9565b5b80604052505050565b60006134cd82613413565b91507fffffffffffffffffffffffffffffffffffffffffffffffffffffffffffffffff821415613500576134ff61353c565b5b600182019050919050565b600061351682613413565b915061352183613413565b9250826135315761353061356b565b5b828206905092915050565b7f4e487b7100000000000000000000000000000000000000000000000000000000600052601160045260246000fd5b7f4e487b7100000000000000000000000000000000000000000000000000000000600052601260045260246000fd5b7f4e487b7100000000000000000000000000000000000000000000000000000000600052602260045260246000fd5b7f4e487b7100000000000000000000000000000000000000000000000000000000600052604160045260246000fd5b6000601f19601f8301169050919050565b7f68747470733a2f2f6e6674707265766965772e30786465762e636f6465732f3f60008201527f636f64653d000000000000000000000000000000000000000000000000000000602082015250565b7f4552433732313a207472616e7366657220746f206e6f6e20455243373231526560008201527f63656976657220696d706c656d656e7465720000000000000000000000000000602082015250565b7f4552433732313a207472616e736665722066726f6d20696e636f72726563742060008201527f6f776e6572000000000000000000000000000000000000000000000000000000602082015250565b7f4552433732313a20746f6b656e20616c7265616479206d696e74656400000000600082015250565b7f54484952445f574f524400000000000000000000000000000000000000000000600082015250565b7f4552433732313a207472616e7366657220746f20746865207a65726f2061646460008201527f7265737300000000000000000000000000000000000000000000000000000000602082015250565b7f4552433732313a20617070726f766520746f2063616c6c657200000000000000600082015250565b7f222c20226465736372697074696f6e223a20224120686967686c79206163636c60008201527f61696d656420636f6c6c656374696f6e206f6620737175617265732e222c202260208201527f696d616765223a2022646174613a696d6167652f7376672b786d6c3b6261736560408201527f36342c0000000000000000000000000000000000000000000000000000000000606082015250565b7f5345434f4e445f574f5244000000000000000000000000000000000000000000600082015250565b7f4552433732313a206f70657261746f7220717565727920666f72206e6f6e657860008201527f697374656e7420746f6b656e0000000000000000000000000000000000000000602082015250565b7f3c2f746578743e3c2f7376673e00000000000000000000000000000000000000600082015250565b7f4552433732313a20617070726f76652063616c6c6572206973206e6f74206f7760008201527f6e6572206e6f7220617070726f76656420666f7220616c6c0000000000000000602082015250565b7f4552433732313a2062616c616e636520717565727920666f7220746865207a6560008201527f726f206164647265737300000000000000000000000000000000000000000000602082015250565b7f4552433732313a206f776e657220717565727920666f72206e6f6e657869737460008201527f656e7420746f6b656e0000000000000000000000000000000000000000000000602082015250565b7f45524337323155524953746f726167653a2055524920736574206f66206e6f6e60008201527f6578697374656e7420746f6b656e000000000000000000000000000000000000602082015250565b7f227d000000000000000000000000000000000000000000000000000000000000600082015250565b7f4552433732313a206d696e7420746f20746865207a65726f2061646472657373600082015250565b7f45524337323155524953746f726167653a2055524920717565727920666f722060008201527f6e6f6e6578697374656e7420746f6b656e000000000000000000000000000000602082015250565b7f4552433732313a20617070726f76656420717565727920666f72206e6f6e657860008201527f697374656e7420746f6b656e0000000000000000000000000000000000000000602082015250565b7f4552433732314d657461646174613a2055524920717565727920666f72206e6f60008201527f6e6578697374656e7420746f6b656e0000000000000000000000000000000000602082015250565b7f7b226e616d65223a202200000000000000000000000000000000000000000000600082015250565b7f4552433732313a20617070726f76616c20746f2063757272656e74206f776e6560008201527f7200000000000000000000000000000000000000000000000000000000000000602082015250565b7f646174613a6170706c69636174696f6e2f6a736f6e3b6261736536342c000000600082015250565b7f4552433732313a207472616e736665722063616c6c6572206973206e6f74206f60008201527f776e6572206e6f7220617070726f766564000000000000000000000000000000602082015250565b7f434f4c4f52000000000000000000000000000000000000000000000000000000600082015250565b7f46697273745f576f726400000000000000000000000000000000000000000000600082015250565b613cc28161338d565b8114613ccd57600080fd5b50565b613cd98161339f565b8114613ce457600080fd5b50565b613cf0816133ab565b8114613cfb57600080fd5b50565b613d0781613413565b8114613d1257600080fd5b5056fe416e204e46542020572f2049442025732020686173206265656e206d696e74656420746f2025734142434445464748494a4b4c4d4e4f505152535455565758595a6162636465666768696a6b6c6d6e6f707172737475767778797a303132333435363738392b2fa2646970667358221220a9d7d46d5378d99d8db833fcc452cc3e3f69886bd3360b7dc487f94a51f1a16064736f6c634300080100333c73766720786d6c6e733d27687474703a2f2f7777772e77332e6f72672f323030302f73766727207072657365727665417370656374526174696f3d27784d696e594d696e206d656574272076696577426f783d273020302033353020333530273e3c7374796c653e2e62617365207b2066696c6c3a2077686974653b20666f6e742d66616d696c793a2073657269663b20666f6e742d73697a653a20323470783b207d3c2f7374796c653e3c726563742077696474683d273130302527206865696768743d2731303025272066696c6c3d2727202f3e3c7465787420783d273530252720793d273530252720636c6173733d27626173652720646f6d696e616e742d626173656c696e653d276d6964646c652720746578742d616e63686f723d276d6964646c65273e",
    "linkReferences": {},
    "deployedLinkReferences": {}
}